:100000000C942A000C94DC040C9405050C942E0529
:100010000C9476060C944D060C9424060C94D20590
:100020000C94FB050C94A9050C9480050C945705C1
:100030000C9447000C9447000C9447000C94470024
:100040000C94B8020C9447000C9447000C944700A1
:100050000C94470011241FBECFE5D8E0DEBFCDBF12
:1000600010E0A0E6B0E0E2ECFEE002C005900D92E8
:10007000AC3CB107D9F720E0ACECB0E001C01D9278
:10008000A33FB207E1F70E948D020C945F070C9426
:10009000000061E080E10C94E5030E94D2030E941D
:1000A000B0010E94990263E080E00E94680469E464
:1000B00070E080E00E94C70480E00E94B70478945A
:1000C0000C940607CF92DF92EF92FF9260E080E0FF
:1000D0000E94E8016091E7007091E8008091E900DA
:1000E0009091EA000E94FC0180E890E00E94DC010F
:1000F00060E081E00E94E8016091EB007091EC000B
:100100008091ED009091EE002AE0C22ED12CE12CDE
:10011000F12CA70196010E940F07CA01B9010E94A4
:10012000FC018EE20E94DA016091EB007091EC001C
:100130008091ED009091EE00A70196010E940F07BB
:100140000E94FC0180E890E00E94DC0160E082E017
:100150000E94E8016091EF007091F0008091F10041
:100160009091F2000E94FC0180E890E00E94DC0186
:100170008091EB009091EC00A091ED00B091EE0029
:10018000893E9340A105B10558F061E08AE10E94E3
:10019000E50360E083E00E94E80189E890E02FC079
:1001A0008091EF009091F000A091F100B091F200E9
:1001B00081329340A105B10558F061E08AE10E94C7
:1001C000E50360E083E00E94E8018EE990E017C05B
:1001D0008091E7009091E800A091E900B091EA00D9
:1001E000853F9140A105B10580F061E08AE10E9460
:1001F000E50360E083E00E94E80182EB90E0FF907D
:10020000EF90DF90CF900C94DC01FF90EF90DF90A7
:10021000CF900895CF93C82F60E083E00E94E5035C
:10022000C4FB662760F988E00E94E503C5FB6627EA
:1002300060F989E00E94E503C6FB662760F98AE061
:100240000E94E5036C2F661F6627661F8CE00E94E4
:10025000E50361E082E00E94E5038FE99FE00197FA
:10026000F1F700C0000060E082E00E94E5036C2F1F
:10027000617088E00E94E503C1FB662760F989E0B0
:100280000E94E503C2FB662760F98AE00E94E5034D
:10029000C3FB662760F98CE00E94E50361E082E021
:1002A0000E94E5038FE99FE00197F1F700C000008D
:1002B00060E082E0CF910C94E503CF93C82F61E01A
:1002C00083E00E94E503C4FB662760F988E00E9492
:1002D000E503C5FB662760F989E00E94E503C6FBDC
:1002E000662760F98AE00E94E5036C2F661F662787
:1002F000661F8CE00E94E50361E082E00E94E50356
:100300008FE99FE00197F1F700C0000060E082E014
:100310000E94E5036C2F617088E00E94E503C1FB39
:10032000662760F989E00E94E503C2FB662760F951
:100330008AE00E94E503C3FB662760F98CE00E9417
:10034000E50361E082E00E94E5038FE99FE0019709
:10035000F1F700C0000060E082E0CF910C94E5036B
:100360002FEF80E792E0215080409040E1F700C0FD
:10037000000082E00E940A0188E20E940A018FE9DF
:100380009FE00197F1F700C000008CE00E940A0195
:100390008FE99FE00197F1F700C0000081E00E9423
:1003A0000A018FE39FE10197F1F700C0000086E0AA
:1003B0000C940A010C945D01CF93DF93EC018991B9
:1003C000882319F00E945D01FACFDF91CF91089543
:1003D000982F862F911102C080580BC0913011F4D4
:1003E000805407C0923011F48C5603C0933019F436
:1003F0008C520C940A0108954F925F926F927F92F3
:10040000AF92BF92CF92DF92EF92FF921F93CF9362
:10041000DF93CDB7DEB7A0970FB6F894DEBF0FBE5F
:10042000CDBF6B017C0197FF12C08DE20E945D0180
:10043000F094E094D094C094C11CD11CE11CF11C38
:1004400080E02AE0422E512C612C712C09C0672BD0
:10045000682B692BA9F780E30E945D0110E01CC0A6
:1004600011E0180FAA24A394B12CAC0EBD1EA80E47
:10047000B11C87FDBA94C701B601A30192010E9485
:100480003107605DF501608369017A01812FC11434
:10049000D104E104F10421F7E1E0F0E0EC0FFD1FED
:1004A000E10FF11D17FDFA951082FF24FA94F10E69
:1004B000F7FC0DC0E1E0F0E0EC0FFD1FEF0DF11DCA
:1004C000F7FCFA9580810E945D01FA94F1CFA09625
:1004D0000FB6F894DEBF0FBECDBFDF91CF911F9155
:1004E000FF90EF90DF90CF90BF90AF907F906F9094
:1004F0005F904F9008950E94B5029C01ACEDB5E06D
:100500000E9450077E5F8F4F9F4F24E331E040E011
:1005100050E00E940F07C90108950E944D000E94FB
:100520006200FDCF339A08959093CD008093CC0064
:100530000895E6ECF0E0828180FD3F9A80FF3F98CD
:1005400027B1938130E4939FC0011124922F9F7BA8
:10055000892B87B986B1876086B9379A089597B194
:10056000907E892B87B9369A089584B195B1089504
:100570001F920F920FB60F9211242F933F934F9318
:100580005F936F937F938F939F93AF93BF93EF93FB
:10059000FF93E091CC00F091CD00309709F00995E0
:1005A000FF91EF91BF91AF919F918F917F916F914B
:1005B0005F914F913F912F910F900FBE0F901F9021
:1005C0001895982F9695969596958770613009F4B1
:1005D0009AC008F44BC0623009F0E3C09130B1F02A
:1005E00028F0923019F1933089F108954AB321E04F
:1005F00030E0B90102C0660F771F8A95E2F7CB01A0
:10060000942F982B9ABB9BB3809547C047B321E0AA
:1006100030E0B90102C0660F771F8A95E2F7CB017F
:10062000942F982B97BB98B3809549C044B321E091
:1006300030E0B90102C0660F771F8A95E2F7CB015F
:10064000942F982B94BB95B380954AC041B321E079
:1006500030E0B90102C0660F771F8A95E2F7CB013F
:10066000942F982B91BB92B380954BC09130C1F0E1
:1006700028F0923031F19330A9F108954AB321E086
:1006800030E0B90102C0660F771F8A95E2F7CB010F
:100690008095942F98239ABB9BB389238BBB089595
:1006A00047B321E030E0B90102C0660F771F8A9599
:1006B000E2F7CB018095942F982397BB98B38923B9
:1006C0004BC044B321E030E0B90102C0660F771F90
:1006D0008A95E2F7CB018095942F982394BB95B32C
:1006E00089234CC041B321E030E0B90102C0660F5C
:1006F000771F8A95E2F7CB018095942F982391BBC1
:1007000092B389234DC09130B9F028F0923031F185
:100710009330B1F108954AB321E030E0B90102C04D
:10072000660F771F8A95E2F7CB01962F9095942359
:100730009ABB9BB3892BB2CF47B321E030E0B9011C
:1007400002C0660F771F8A95E2F7CB01962F90952E
:10075000942397BB98B3892B88BB089544B321E0B9
:1007600030E0B90102C0660F771F8A95E2F7CB012E
:10077000962F9095942394BB95B3892B85BB0895B0
:1007800041B321E030E0B90102C0660F771F8A95BE
:10079000E2F7CB01962F9095942391BB92B3892BCE
:1007A00082BB08950F931F93CF9300E610E0C0E043
:1007B000F80161918F018C2F0E94E102CF5FC0325E
:1007C000B9F7CF911F910F910895982F969596950F
:1007D00096958770662319F06130F1F10895913094
:1007E00099F028F09230E9F0933041F108954BB33D
:1007F00021E030E0B90102C0660F771F8A95E2F769
:10080000CB01809584233BC048B321E030E0B9019F
:1008100002C0660F771F8A95E2F7CB01809584238B
:100820003BC045B321E030E0B90102C0660F771F3D
:100830008A95E2F7CB01809584233BC042B321E047
:1008400030E0B90102C0660F771F8A95E2F7CB014D
:100850008095842382BB0895913099F028F09230DE
:10086000E9F0933041F108954BB321E030E0B90154
:1008700002C0660F771F8A95E2F7CB01842B8BBBF2
:10088000089548B321E030E0B90102C0660F771F38
:100890008A95E2F7CB01842B88BB089545B321E00C
:1008A00030E0B90102C0660F771F8A95E2F7CB01ED
:1008B000842B85BB089542B321E030E0B90102C02A
:1008C000660F771F8A95E2F7CB01842B82BB0895D0
:1008D000813039F118F08230F1F10895613099F0EA
:1008E00058F06230B9F06330E1F485B7816085BFBC
:1008F00085B7826085BF29C085B78E7F85BF85B7E4
:100900008D7F85BF16C085B7816085BF85B78D7F18
:1009100085BF12C085B78E7F85BF85B7826085BFD2
:1009200011C0613049F028F0623061F06330F1F4B9
:100930000CC085B78B7F02C085B7846085BF85B743
:10094000877F13C085B78B7F02C085B7846085BF62
:1009500085B788600AC0623019F0633021F00895CD
:1009600085B78F7B02C085B7806485BF08958130CD
:1009700039F018F0823039F008958BB7806405C0E3
:100980008BB7806802C08BB780628BBF08958130BF
:1009900049F018F0823059F008957093D3006093B5
:1009A000D20008957093D1006093D00008957093A1
:1009B000CF006093CE0008951F920F920FB60F9252
:1009C00011242F933F934F935F936F937F938F9354
:1009D0009F93AF93BF93EF93FF93E091D200F09179
:1009E000D300309709F00995FF91EF91BF91AF9136
:1009F0009F918F917F916F915F914F913F912F9137
:100A00000F900FBE0F901F9018951F920F920FB668
:100A10000F9211242F933F934F935F936F937F9384
:100A20008F939F93AF93BF93EF93FF93E091D00089
:100A3000F091D100309709F00995FF91EF91BF91A6
:100A4000AF919F918F917F916F915F914F913F9166
:100A50002F910F900FBE0F901F9018951F920F921D
:100A60000FB60F9211242F933F934F935F936F9381
:100A70007F938F939F93AF93BF93EF93FF93E091F7
:100A8000CE00F091CF00309709F00995FF91EF91DA
:100A9000BF91AF919F918F917F916F915F914F9196
:100AA0003F912F910F900FBE0F901F9018951F929E
:100AB0000F920FB60F9211242F933F934F935F9392
:100AC0006F937F938F939F93AF93BF93EF93FF9316
:100AD000E091D600F091D700309709F00995FF9189
:100AE000EF91BF91AF919F918F917F916F915F91A6
:100AF0004F913F912F910F900FBE0F901F9018951F
:100B00001F920F920FB60F9211242F933F934F9382
:100B10005F936F937F938F939F93AF93BF93EF9365
:100B2000FF93E091D400F091D500309709F009953A
:100B3000FF91EF91BF91AF919F918F917F916F91B5
:100B40005F914F913F912F910F900FBE0F901F908B
:100B500018951F920F920FB60F9211242F933F9367
:100B60004F935F936F937F938F939F93AF93BF93B5
:100B7000EF93FF93E091DE00F091DF00309709F0F2
:100B80000995FF91EF91BF91AF919F918F917F91C7
:100B90006F915F914F913F912F910F900FBE0F90EA
:100BA0001F9018951F920F920FB60F9211242F933A
:100BB0003F934F935F936F937F938F939F93AF93E5
:100BC000BF93EF93FF93E091DC00F091DD0030974D
:100BD00009F00995FF91EF91BF91AF919F918F918E
:100BE0007F916F915F914F913F912F910F900FBE29
:100BF0000F901F9018951F920F920FB60F9211240D
:100C00002F933F934F935F936F937F938F939F9314
:100C1000AF93BF93EF93FF93E091DA00F091DB0085
:100C2000309709F00995FF91EF91BF91AF919F9196
:100C30008F917F916F915F914F913F912F910F9085
:100C40000FBE0F901F9018951F920F920FB60F9224
:100C500011242F933F934F935F936F937F938F93C1
:100C60009F93AF93BF93EF93FF93E091D800F091E0
:100C7000D900309709F00995FF91EF91BF91AF919D
:100C80009F918F917F916F915F914F913F912F91A4
:100C90000F900FBE0F901F9018951F920F920FB6D6
:100CA0000F9211242F933F934F935F936F937F93F2
:100CB0008F939F93AF93BF93EF93FF93E091E200E5
:100CC000F091E300309709F00995FF91EF91BF9102
:100CD000AF919F918F917F916F915F914F913F91D4
:100CE0002F910F900FBE0F901F9018951F920F928B
:100CF0000FB60F9211242F933F934F935F936F93EF
:100D00007F938F939F93AF93BF93EF93FF93E09164
:100D1000E000F091E100309709F00995FF91EF9123
:100D2000BF91AF919F918F917F916F915F914F9103
:100D30003F912F910F900FBE0F901F901895CF935A
:100D4000DF938091E4009091E5000097E1F4C09179
:100D5000E60081E08C0F8093E600D0E00E94B502AF
:100D6000A0E0B0E0CC0FDD1FCC0FDD1FC951DF4F7D
:100D700088839983AA83BB8381E090E09093E50008
:100D80008093E4003CC081309105F9F4C091E60005
:100D900081E08C0F8093E600D0E00E947B02092E58
:100DA000000CAA0BBB0BCC0FDD1FCC0FDD1FC951F4
:100DB000DF4F88839983AA83BB8382E090E090937E
:100DC000E5008093E40084E01AC00297E1F4C0914A
:100DD000E600D0E00E94B502A0E0B0E0CC0FDD1F3D
:100DE000CC0FDD1FC951DF4F88839983AA83BB8352
:100DF0001092E5001092E4001092E60080E0DF918E
:100E0000CF910C94AF02DF91CF9108958FE996E0D6
:100E10000E9494020E94920280E00C94AF02A1E230
:100E20001A2EAA1BBB1BFD010DC0AA1FBB1FEE1F64
:100E3000FF1FA217B307E407F50720F0A21BB30BAF
:100E4000E40BF50B661F771F881F991F1A9469F72B
:100E500060957095809590959B01AC01BD01CF0187
:100E60000895052E97FB1EF400940E94480757FD35
:100E700007D00E940F0707FC03D04EF40C944807DC
:100E800050954095309521953F4F4F4F5F4F0895B6
:100E900090958095709561957F4F8F4F9F4F0895E6
:100EA000A29FB001B39FC001A39F700D811D1124AB
:100EB000911DB29F700D811D1124911D0895F8940C
:020EC000FFCF62
:100EC2000000020200020202010202020202020207
:100ED20002020202020202020202020102020101F3
:100EE20020202020202020200045787420736F7558
:100EF2007263652066726F6D2054656D700045786F
:100F02007420736F757263652066726F6D204C4436
:100F1200520045585420736F757263652066726F74
:0C0F22006D20504F540000000001010140
:00000001FF
